{
  "contractName": "Counter",
  "abi": [
    {
      "inputs": [],
      "stateMutability": "nonpayable",
      "type": "constructor"
    },
    {
      "inputs": [],
      "name": "counter",
      "outputs": [
        {
          "internalType": "uint256",
          "name": "",
          "type": "uint256"
        }
      ],
      "stateMutability": "view",
      "type": "function",
      "constant": true
    },
    {
      "inputs": [],
      "name": "count",
      "outputs": [],
      "stateMutability": "nonpayable",
      "type": "function"
    },
    {
      "inputs": [
        {
          "internalType": "uint256",
          "name": "x",
          "type": "uint256"
        }
      ],
      "name": "set",
      "outputs": [],
      "stateMutability": "nonpayable",
      "type": "function"
    }
  ],
  "bytecode": "0x608060405234801561001057600080fd5b506000808190555061024d806100276000396000f3fe608060405234801561001057600080fd5b50600436106100415760003560e01c806306661abd1461004657806360fe47b11461005057806361bc221a1461006c575b600080fd5b61004e61008a565b005b61006a600480360381019061006591906100d5565b6100a3565b005b6100746100ba565b604051610081919061010d565b60405180910390f35b60008081548092919061009c90610188565b9190505550565b806000546100b19190610128565b60008190555050565b60005481565b6000813590506100cf81610200565b92915050565b6000602082840312156100e757600080fd5b60006100f5848285016100c0565b91505092915050565b6101078161017e565b82525050565b600060208201905061012260008301846100fe565b92915050565b60006101338261017e565b915061013e8361017e565b9250827fffffffffffffffffffffffffffffffffffffffffffffffffffffffffffffffff03821115610173576101726101d1565b5b828201905092915050565b6000819050919050565b60006101938261017e565b91507fffffffffffffffffffffffffffffffffffffffffffffffffffffffffffffffff8214156101c6576101c56101d1565b5b600182019050919050565b7f4e487b7100000000000000000000000000000000000000000000000000000000600052601160045260246000fd5b6102098161017e565b811461021457600080fd5b5056fea264697066735822122080b49573030f43192b24c8f8c7c7488d942dfc62ebbde308a50c1393459d29f464736f6c63430008000033",
  "immutableReferences": {},
  "source": "// SPDX-License-Identifier:MIT\npragma solidity ^0.8.0;\n\ncontract Counter {\n    uint public counter;\n\n    constructor() {\n        counter = 0;\n    }\n\n    function count() public {\n        counter++;\n    }\n\n    function set(uint x) public {\n        counter = counter + x;\n    }\n    \n\n}",
  "sourcePath": "C:\\Users\\Administrator\\Desktop\\homework\\w1-1\\contracts\\Counter.sol",
  "compiler": {
    "name": "solc",
    "version": "0.8.0+commit.c7dfd78e.Emscripten.clang"
  },
  "schemaVersion": "3.4.5",
  "updatedAt": "2022-02-26T12:19:26.387Z",
  "networkType": "ethereum",
  "devdoc": {
    "kind": "dev",
    "methods": {},
    "version": 1
  },
  "userdoc": {
    "kind": "user",
    "methods": {},
    "version": 1
  }
}